{
  "_format": "hh-sol-artifact-1",
  "contractName": "Donor",
  "sourceName": "contracts/Donor.sol",
  "abi": [
    {
      "inputs": [],
      "stateMutability": "nonpayable",
      "type": "constructor"
    },
    {
      "anonymous": false,
      "inputs": [
        {
          "indexed": true,
          "internalType": "address",
          "name": "owner",
          "type": "address"
        },
        {
          "indexed": true,
          "internalType": "address",
          "name": "spender",
          "type": "address"
        },
        {
          "indexed": false,
          "internalType": "uint256",
          "name": "value",
          "type": "uint256"
        }
      ],
      "name": "Approval",
      "type": "event"
    },
    {
      "anonymous": false,
      "inputs": [
        {
          "indexed": true,
          "internalType": "address",
          "name": "previousOwner",
          "type": "address"
        },
        {
          "indexed": true,
          "internalType": "address",
          "name": "newOwner",
          "type": "address"
        }
      ],
      "name": "OwnershipTransferred",
      "type": "event"
    },
    {
      "anonymous": false,
      "inputs": [
        {
          "indexed": true,
          "internalType": "address",
          "name": "from",
          "type": "address"
        },
        {
          "indexed": true,
          "internalType": "address",
          "name": "to",
          "type": "address"
        },
        {
          "indexed": false,
          "internalType": "uint256",
          "name": "value",
          "type": "uint256"
        }
      ],
      "name": "Transfer",
      "type": "event"
    },
    {
      "inputs": [
        {
          "internalType": "address",
          "name": "owner",
          "type": "address"
        },
        {
          "internalType": "address",
          "name": "spender",
          "type": "address"
        }
      ],
      "name": "allowance",
      "outputs": [
        {
          "internalType": "uint256",
          "name": "",
          "type": "uint256"
        }
      ],
      "stateMutability": "view",
      "type": "function"
    },
    {
      "inputs": [
        {
          "internalType": "address",
          "name": "spender",
          "type": "address"
        },
        {
          "internalType": "uint256",
          "name": "amount",
          "type": "uint256"
        }
      ],
      "name": "approve",
      "outputs": [
        {
          "internalType": "bool",
          "name": "",
          "type": "bool"
        }
      ],
      "stateMutability": "nonpayable",
      "type": "function"
    },
    {
      "inputs": [
        {
          "internalType": "address",
          "name": "account",
          "type": "address"
        }
      ],
      "name": "balanceOf",
      "outputs": [
        {
          "internalType": "uint256",
          "name": "",
          "type": "uint256"
        }
      ],
      "stateMutability": "view",
      "type": "function"
    },
    {
      "inputs": [
        {
          "internalType": "uint256",
          "name": "amount",
          "type": "uint256"
        }
      ],
      "name": "burn",
      "outputs": [],
      "stateMutability": "nonpayable",
      "type": "function"
    },
    {
      "inputs": [
        {
          "internalType": "address",
          "name": "account",
          "type": "address"
        },
        {
          "internalType": "uint256",
          "name": "amount",
          "type": "uint256"
        }
      ],
      "name": "burnFrom",
      "outputs": [],
      "stateMutability": "nonpayable",
      "type": "function"
    },
    {
      "inputs": [],
      "name": "decimals",
      "outputs": [
        {
          "internalType": "uint8",
          "name": "",
          "type": "uint8"
        }
      ],
      "stateMutability": "view",
      "type": "function"
    },
    {
      "inputs": [
        {
          "internalType": "address",
          "name": "spender",
          "type": "address"
        },
        {
          "internalType": "uint256",
          "name": "subtractedValue",
          "type": "uint256"
        }
      ],
      "name": "decreaseAllowance",
      "outputs": [
        {
          "internalType": "bool",
          "name": "",
          "type": "bool"
        }
      ],
      "stateMutability": "nonpayable",
      "type": "function"
    },
    {
      "inputs": [
        {
          "internalType": "address",
          "name": "spender",
          "type": "address"
        },
        {
          "internalType": "uint256",
          "name": "addedValue",
          "type": "uint256"
        }
      ],
      "name": "increaseAllowance",
      "outputs": [
        {
          "internalType": "bool",
          "name": "",
          "type": "bool"
        }
      ],
      "stateMutability": "nonpayable",
      "type": "function"
    },
    {
      "inputs": [
        {
          "internalType": "uint256",
          "name": "amount",
          "type": "uint256"
        }
      ],
      "name": "mint",
      "outputs": [],
      "stateMutability": "nonpayable",
      "type": "function"
    },
    {
      "inputs": [],
      "name": "name",
      "outputs": [
        {
          "internalType": "string",
          "name": "",
          "type": "string"
        }
      ],
      "stateMutability": "view",
      "type": "function"
    },
    {
      "inputs": [],
      "name": "owner",
      "outputs": [
        {
          "internalType": "address",
          "name": "",
          "type": "address"
        }
      ],
      "stateMutability": "view",
      "type": "function"
    },
    {
      "inputs": [],
      "name": "renounceOwnership",
      "outputs": [],
      "stateMutability": "nonpayable",
      "type": "function"
    },
    {
      "inputs": [],
      "name": "symbol",
      "outputs": [
        {
          "internalType": "string",
          "name": "",
          "type": "string"
        }
      ],
      "stateMutability": "view",
      "type": "function"
    },
    {
      "inputs": [],
      "name": "totalSupply",
      "outputs": [
        {
          "internalType": "uint256",
          "name": "",
          "type": "uint256"
        }
      ],
      "stateMutability": "view",
      "type": "function"
    },
    {
      "inputs": [
        {
          "internalType": "address",
          "name": "to",
          "type": "address"
        },
        {
          "internalType": "uint256",
          "name": "amount",
          "type": "uint256"
        }
      ],
      "name": "transfer",
      "outputs": [
        {
          "internalType": "bool",
          "name": "",
          "type": "bool"
        }
      ],
      "stateMutability": "nonpayable",
      "type": "function"
    },
    {
      "inputs": [
        {
          "internalType": "address",
          "name": "from",
          "type": "address"
        },
        {
          "internalType": "address",
          "name": "to",
          "type": "address"
        },
        {
          "internalType": "uint256",
          "name": "amount",
          "type": "uint256"
        }
      ],
      "name": "transferFrom",
      "outputs": [
        {
          "internalType": "bool",
          "name": "",
          "type": "bool"
        }
      ],
      "stateMutability": "nonpayable",
      "type": "function"
    },
    {
      "inputs": [
        {
          "internalType": "address",
          "name": "newOwner",
          "type": "address"
        }
      ],
      "name": "transferOwnership",
      "outputs": [],
      "stateMutability": "nonpayable",
      "type": "function"
    }
  ],
  "bytecode": "0x60806040523480156200001157600080fd5b506040518060400160405280600581526020017f446f6e6f720000000000000000000000000000000000000000000000000000008152506040518060400160405280600481526020017f444f4e520000000000000000000000000000000000000000000000000000000081525081600390805190602001906200009692919062000347565b508060049080519060200190620000af92919062000347565b505050620000d2620000c6620000f660201b60201c565b620000fe60201b60201c565b620000f0336b033b2e3c9fd0803ce8000000620001c460201b60201c565b620005a3565b600033905090565b6000600560009054906101000a900473ffffffffffffffffffffffffffffffffffffffff16905081600560006101000a81548173ffffffffffffffffffffffffffffffffffffffff021916908373ffffffffffffffffffffffffffffffffffffffff1602179055508173ffffffffffffffffffffffffffffffffffffffff168173ffffffffffffffffffffffffffffffffffffffff167f8be0079c531659141344cd1fd0a4f28419497f9722a3daafe3b4186f6b6457e060405160405180910390a35050565b600073ffffffffffffffffffffffffffffffffffffffff168273ffffffffffffffffffffffffffffffffffffffff16141562000237576040517f08c379a00000000000000000000000000000000000000000000000000000000081526004016200022e906200042f565b60405180910390fd5b6200024b600083836200033d60201b60201c565b80600260008282546200025f91906200047f565b92505081905550806000808473ffffffffffffffffffffffffffffffffffffffff1673ffffffffffffffffffffffffffffffffffffffff1681526020019081526020016000206000828254620002b691906200047f565b925050819055508173ffffffffffffffffffffffffffffffffffffffff16600073ffffffffffffffffffffffffffffffffffffffff167fddf252ad1be2c89b69c2b068fc378daa952ba7f163c4a11628f55a4df523b3ef836040516200031d919062000451565b60405180910390a362000339600083836200034260201b60201c565b5050565b505050565b505050565b8280546200035590620004e6565b90600052602060002090601f016020900481019282620003795760008555620003c5565b82601f106200039457805160ff1916838001178555620003c5565b82800160010185558215620003c5579182015b82811115620003c4578251825591602001919060010190620003a7565b5b509050620003d49190620003d8565b5090565b5b80821115620003f3576000816000905550600101620003d9565b5090565b600062000406601f836200046e565b915062000413826200057a565b602082019050919050565b6200042981620004dc565b82525050565b600060208201905081810360008301526200044a81620003f7565b9050919050565b60006020820190506200046860008301846200041e565b92915050565b600082825260208201905092915050565b60006200048c82620004dc565b91506200049983620004dc565b9250827fffffffffffffffffffffffffffffffffffffffffffffffffffffffffffffffff03821115620004d157620004d06200051c565b5b828201905092915050565b6000819050919050565b60006002820490506001821680620004ff57607f821691505b602082108114156200051657620005156200054b565b5b50919050565b7f4e487b7100000000000000000000000000000000000000000000000000000000600052601160045260246000fd5b7f4e487b7100000000000000000000000000000000000000000000000000000000600052602260045260246000fd5b7f45524332303a206d696e7420746f20746865207a65726f206164647265737300600082015250565b611d4280620005b36000396000f3fe608060405234801561001057600080fd5b506004361061010b5760003560e01c8063715018a6116100a2578063a0712d6811610071578063a0712d68146102a8578063a457c2d7146102c4578063a9059cbb146102f4578063dd62ed3e14610324578063f2fde38b146103545761010b565b8063715018a61461024657806379cc6790146102505780638da5cb5b1461026c57806395d89b411461028a5761010b565b8063313ce567116100de578063313ce567146101ac57806339509351146101ca57806342966c68146101fa57806370a08231146102165761010b565b806306fdde0314610110578063095ea7b31461012e57806318160ddd1461015e57806323b872dd1461017c575b600080fd5b610118610370565b60405161012591906115f5565b60405180910390f35b61014860048036038101906101439190611341565b610402565b60405161015591906115da565b60405180910390f35b610166610425565b6040516101739190611797565b60405180910390f35b610196600480360381019061019191906112f2565b61042f565b6040516101a391906115da565b60405180910390f35b6101b461045e565b6040516101c191906117b2565b60405180910390f35b6101e460048036038101906101df9190611341565b610467565b6040516101f191906115da565b60405180910390f35b610214600480360381019061020f919061137d565b61049e565b005b610230600480360381019061022b919061128d565b61052e565b60405161023d9190611797565b60405180910390f35b61024e610576565b005b61026a60048036038101906102659190611341565b6105fe565b005b61027461061e565b60405161028191906115bf565b60405180910390f35b610292610648565b60405161029f91906115f5565b60405180910390f35b6102c260048036038101906102bd919061137d565b6106da565b005b6102de60048036038101906102d99190611341565b610763565b6040516102eb91906115da565b60405180910390f35b61030e60048036038101906103099190611341565b6107da565b60405161031b91906115da565b60405180910390f35b61033e600480360381019061033991906112b6565b6107fd565b60405161034b9190611797565b60405180910390f35b61036e6004803603810190610369919061128d565b610884565b005b60606003805461037f906118fb565b80601f01602080910402602001604051908101604052809291908181526020018280546103ab906118fb565b80156103f85780601f106103cd576101008083540402835291602001916103f8565b820191906000526020600020905b8154815290600101906020018083116103db57829003601f168201915b5050505050905090565b60008061040d61097c565b905061041a818585610984565b600191505092915050565b6000600254905090565b60008061043a61097c565b9050610447858285610b4f565b610452858585610bdb565b60019150509392505050565b60006012905090565b60008061047261097c565b905061049381858561048485896107fd565b61048e91906117e9565b610984565b600191505092915050565b6104a661097c565b73ffffffffffffffffffffffffffffffffffffffff166104c461061e565b73ffffffffffffffffffffffffffffffffffffffff161461051a576040517f08c379a0000000000000000000000000000000000000000000000000000000008152600401610511906116d7565b60405180910390fd5b61052b61052561097c565b82610e5c565b50565b60008060008373ffffffffffffffffffffffffffffffffffffffff1673ffffffffffffffffffffffffffffffffffffffff168152602001908152602001600020549050919050565b61057e61097c565b73ffffffffffffffffffffffffffffffffffffffff1661059c61061e565b73ffffffffffffffffffffffffffffffffffffffff16146105f2576040517f08c379a00000000000000000000000000000000000000000000000000000000081526004016105e9906116d7565b60405180910390fd5b6105fc6000611033565b565b6106108261060a61097c565b83610b4f565b61061a8282610e5c565b5050565b6000600560009054906101000a900473ffffffffffffffffffffffffffffffffffffffff16905090565b606060048054610657906118fb565b80601f0160208091040260200160405190810160405280929190818152602001828054610683906118fb565b80156106d05780601f106106a5576101008083540402835291602001916106d0565b820191906000526020600020905b8154815290600101906020018083116106b357829003601f168201915b5050505050905090565b6106e261097c565b73ffffffffffffffffffffffffffffffffffffffff1661070061061e565b73ffffffffffffffffffffffffffffffffffffffff1614610756576040517f08c379a000000000000000000000000000000000000000000000000000000000815260040161074d906116d7565b60405180910390fd5b61076033826110f9565b50565b60008061076e61097c565b9050600061077c82866107fd565b9050838110156107c1576040517f08c379a00000000000000000000000000000000000000000000000000000000081526004016107b890611757565b60405180910390fd5b6107ce8286868403610984565b60019250505092915050565b6000806107e561097c565b90506107f2818585610bdb565b600191505092915050565b6000600160008473ffffffffffffffffffffffffffffffffffffffff1673ffffffffffffffffffffffffffffffffffffffff16815260200190815260200160002060008373ffffffffffffffffffffffffffffffffffffffff1673ffffffffffffffffffffffffffffffffffffffff16815260200190815260200160002054905092915050565b61088c61097c565b73ffffffffffffffffffffffffffffffffffffffff166108aa61061e565b73ffffffffffffffffffffffffffffffffffffffff1614610900576040517f08c379a00000000000000000000000000000000000000000000000000000000081526004016108f7906116d7565b60405180910390fd5b600073ffffffffffffffffffffffffffffffffffffffff168173ffffffffffffffffffffffffffffffffffffffff161415610970576040517f08c379a000000000000000000000000000000000000000000000000000000000815260040161096790611657565b60405180910390fd5b61097981611033565b50565b600033905090565b600073ffffffffffffffffffffffffffffffffffffffff168373ffffffffffffffffffffffffffffffffffffffff1614156109f4576040517f08c379a00000000000000000000000000000000000000000000000000000000081526004016109eb90611737565b60405180910390fd5b600073ffffffffffffffffffffffffffffffffffffffff168273ffffffffffffffffffffffffffffffffffffffff161415610a64576040517f08c379a0000000000000000000000000000000000000000000000000000000008152600401610a5b90611677565b60405180910390fd5b80600160008573ffffffffffffffffffffffffffffffffffffffff1673ffffffffffffffffffffffffffffffffffffffff16815260200190815260200160002060008473ffffffffffffffffffffffffffffffffffffffff1673ffffffffffffffffffffffffffffffffffffffff168152602001908152602001600020819055508173ffffffffffffffffffffffffffffffffffffffff168373ffffffffffffffffffffffffffffffffffffffff167f8c5be1e5ebec7d5bd14f71427d1e84f3dd0314c0f7b2291e5b200ac8c7c3b92583604051610b429190611797565b60405180910390a3505050565b6000610b5b84846107fd565b90507fffffffffffffffffffffffffffffffffffffffffffffffffffffffffffffffff8114610bd55781811015610bc7576040517f08c379a0000000000000000000000000000000000000000000000000000000008152600401610bbe90611697565b60405180910390fd5b610bd48484848403610984565b5b50505050565b600073ffffffffffffffffffffffffffffffffffffffff168373ffffffffffffffffffffffffffffffffffffffff161415610c4b576040517f08c379a0000000000000000000000000000000000000000000000000000000008152600401610c4290611717565b60405180910390fd5b600073ffffffffffffffffffffffffffffffffffffffff168273ffffffffffffffffffffffffffffffffffffffff161415610cbb576040517f08c379a0000000000000000000000000000000000000000000000000000000008152600401610cb290611617565b60405180910390fd5b610cc6838383611259565b60008060008573ffffffffffffffffffffffffffffffffffffffff1673ffffffffffffffffffffffffffffffffffffffff16815260200190815260200160002054905081811015610d4c576040517f08c379a0000000000000000000000000000000000000000000000000000000008152600401610d43906116b7565b60405180910390fd5b8181036000808673ffffffffffffffffffffffffffffffffffffffff1673ffffffffffffffffffffffffffffffffffffffff16815260200190815260200160002081905550816000808573ffffffffffffffffffffffffffffffffffffffff1673ffffffffffffffffffffffffffffffffffffffff1681526020019081526020016000206000828254610ddf91906117e9565b925050819055508273ffffffffffffffffffffffffffffffffffffffff168473ffffffffffffffffffffffffffffffffffffffff167fddf252ad1be2c89b69c2b068fc378daa952ba7f163c4a11628f55a4df523b3ef84604051610e439190611797565b60405180910390a3610e5684848461125e565b50505050565b600073ffffffffffffffffffffffffffffffffffffffff168273ffffffffffffffffffffffffffffffffffffffff161415610ecc576040517f08c379a0000000000000000000000000000000000000000000000000000000008152600401610ec3906116f7565b60405180910390fd5b610ed882600083611259565b60008060008473ffffffffffffffffffffffffffffffffffffffff1673ffffffffffffffffffffffffffffffffffffffff16815260200190815260200160002054905081811015610f5e576040517f08c379a0000000000000000000000000000000000000000000000000000000008152600401610f5590611637565b60405180910390fd5b8181036000808573ffffffffffffffffffffffffffffffffffffffff1673ffffffffffffffffffffffffffffffffffffffff168152602001908152602001600020819055508160026000828254610fb5919061183f565b92505081905550600073ffffffffffffffffffffffffffffffffffffffff168373ffffffffffffffffffffffffffffffffffffffff167fddf252ad1be2c89b69c2b068fc378daa952ba7f163c4a11628f55a4df523b3ef8460405161101a9190611797565b60405180910390a361102e8360008461125e565b505050565b6000600560009054906101000a900473ffffffffffffffffffffffffffffffffffffffff16905081600560006101000a81548173ffffffffffffffffffffffffffffffffffffffff021916908373ffffffffffffffffffffffffffffffffffffffff1602179055508173ffffffffffffffffffffffffffffffffffffffff168173ffffffffffffffffffffffffffffffffffffffff167f8be0079c531659141344cd1fd0a4f28419497f9722a3daafe3b4186f6b6457e060405160405180910390a35050565b600073ffffffffffffffffffffffffffffffffffffffff168273ffffffffffffffffffffffffffffffffffffffff161415611169576040517f08c379a000000000000000000000000000000000000000000000000000000000815260040161116090611777565b60405180910390fd5b61117560008383611259565b806002600082825461118791906117e9565b92505081905550806000808473ffffffffffffffffffffffffffffffffffffffff1673ffffffffffffffffffffffffffffffffffffffff16815260200190815260200160002060008282546111dc91906117e9565b925050819055508173ffffffffffffffffffffffffffffffffffffffff16600073ffffffffffffffffffffffffffffffffffffffff167fddf252ad1be2c89b69c2b068fc378daa952ba7f163c4a11628f55a4df523b3ef836040516112419190611797565b60405180910390a36112556000838361125e565b5050565b505050565b505050565b60008135905061127281611cde565b92915050565b60008135905061128781611cf5565b92915050565b60006020828403121561129f57600080fd5b60006112ad84828501611263565b91505092915050565b600080604083850312156112c957600080fd5b60006112d785828601611263565b92505060206112e885828601611263565b9150509250929050565b60008060006060848603121561130757600080fd5b600061131586828701611263565b935050602061132686828701611263565b925050604061133786828701611278565b9150509250925092565b6000806040838503121561135457600080fd5b600061136285828601611263565b925050602061137385828601611278565b9150509250929050565b60006020828403121561138f57600080fd5b600061139d84828501611278565b91505092915050565b6113af81611873565b82525050565b6113be81611885565b82525050565b60006113cf826117cd565b6113d981856117d8565b93506113e98185602086016118c8565b6113f28161198b565b840191505092915050565b600061140a6023836117d8565b91506114158261199c565b604082019050919050565b600061142d6022836117d8565b9150611438826119eb565b604082019050919050565b60006114506026836117d8565b915061145b82611a3a565b604082019050919050565b60006114736022836117d8565b915061147e82611a89565b604082019050919050565b6000611496601d836117d8565b91506114a182611ad8565b602082019050919050565b60006114b96026836117d8565b91506114c482611b01565b604082019050919050565b60006114dc6020836117d8565b91506114e782611b50565b602082019050919050565b60006114ff6021836117d8565b915061150a82611b79565b604082019050919050565b60006115226025836117d8565b915061152d82611bc8565b604082019050919050565b60006115456024836117d8565b915061155082611c17565b604082019050919050565b60006115686025836117d8565b915061157382611c66565b604082019050919050565b600061158b601f836117d8565b915061159682611cb5565b602082019050919050565b6115aa816118b1565b82525050565b6115b9816118bb565b82525050565b60006020820190506115d460008301846113a6565b92915050565b60006020820190506115ef60008301846113b5565b92915050565b6000602082019050818103600083015261160f81846113c4565b905092915050565b60006020820190508181036000830152611630816113fd565b9050919050565b6000602082019050818103600083015261165081611420565b9050919050565b6000602082019050818103600083015261167081611443565b9050919050565b6000602082019050818103600083015261169081611466565b9050919050565b600060208201905081810360008301526116b081611489565b9050919050565b600060208201905081810360008301526116d0816114ac565b9050919050565b600060208201905081810360008301526116f0816114cf565b9050919050565b60006020820190508181036000830152611710816114f2565b9050919050565b6000602082019050818103600083015261173081611515565b9050919050565b6000602082019050818103600083015261175081611538565b9050919050565b600060208201905081810360008301526117708161155b565b9050919050565b600060208201905081810360008301526117908161157e565b9050919050565b60006020820190506117ac60008301846115a1565b92915050565b60006020820190506117c760008301846115b0565b92915050565b600081519050919050565b600082825260208201905092915050565b60006117f4826118b1565b91506117ff836118b1565b9250827fffffffffffffffffffffffffffffffffffffffffffffffffffffffffffffffff038211156118345761183361192d565b5b828201905092915050565b600061184a826118b1565b9150611855836118b1565b9250828210156118685761186761192d565b5b828203905092915050565b600061187e82611891565b9050919050565b60008115159050919050565b600073ffffffffffffffffffffffffffffffffffffffff82169050919050565b6000819050919050565b600060ff82169050919050565b60005b838110156118e65780820151818401526020810190506118cb565b838111156118f5576000848401525b50505050565b6000600282049050600182168061191357607f821691505b602082108114156119275761192661195c565b5b50919050565b7f4e487b7100000000000000000000000000000000000000000000000000000000600052601160045260246000fd5b7f4e487b7100000000000000000000000000000000000000000000000000000000600052602260045260246000fd5b6000601f19601f8301169050919050565b7f45524332303a207472616e7366657220746f20746865207a65726f206164647260008201527f6573730000000000000000000000000000000000000000000000000000000000602082015250565b7f45524332303a206275726e20616d6f756e7420657863656564732062616c616e60008201527f6365000000000000000000000000000000000000000000000000000000000000602082015250565b7f4f776e61626c653a206e6577206f776e657220697320746865207a65726f206160008201527f6464726573730000000000000000000000000000000000000000000000000000602082015250565b7f45524332303a20617070726f766520746f20746865207a65726f20616464726560008201527f7373000000000000000000000000000000000000000000000000000000000000602082015250565b7f45524332303a20696e73756666696369656e7420616c6c6f77616e6365000000600082015250565b7f45524332303a207472616e7366657220616d6f756e742065786365656473206260008201527f616c616e63650000000000000000000000000000000000000000000000000000602082015250565b7f4f776e61626c653a2063616c6c6572206973206e6f7420746865206f776e6572600082015250565b7f45524332303a206275726e2066726f6d20746865207a65726f2061646472657360008201527f7300000000000000000000000000000000000000000000000000000000000000602082015250565b7f45524332303a207472616e736665722066726f6d20746865207a65726f20616460008201527f6472657373000000000000000000000000000000000000000000000000000000602082015250565b7f45524332303a20617070726f76652066726f6d20746865207a65726f2061646460008201527f7265737300000000000000000000000000000000000000000000000000000000602082015250565b7f45524332303a2064656372656173656420616c6c6f77616e63652062656c6f7760008201527f207a65726f000000000000000000000000000000000000000000000000000000602082015250565b7f45524332303a206d696e7420746f20746865207a65726f206164647265737300600082015250565b611ce781611873565b8114611cf257600080fd5b50565b611cfe816118b1565b8114611d0957600080fd5b5056fea264697066735822122078917badcd72f0e4d0585c4ea2fccf6a19f0f75199eaceacfd0741ee033a651a64736f6c63430008040033",
  "linkReferences": {},
  "deployedLinkReferences": {}
}