{
  "_format": "hh-sol-artifact-1",
  "contractName": "Godonor",
  "sourceName": "contracts/GoDonor.sol",
  "abi": [
    {
      "inputs": [
        {
          "internalType": "address payable",
          "name": "_donor",
          "type": "address"
        }
      ],
      "stateMutability": "nonpayable",
      "type": "constructor"
    },
    {
      "anonymous": false,
      "inputs": [
        {
          "indexed": true,
          "internalType": "address",
          "name": "previousOwner",
          "type": "address"
        },
        {
          "indexed": true,
          "internalType": "address",
          "name": "newOwner",
          "type": "address"
        }
      ],
      "name": "OwnershipTransferred",
      "type": "event"
    },
    {
      "inputs": [
        {
          "internalType": "address",
          "name": "",
          "type": "address"
        }
      ],
      "name": "balanceRaised",
      "outputs": [
        {
          "internalType": "uint256",
          "name": "id",
          "type": "uint256"
        },
        {
          "internalType": "uint256",
          "name": "amountRaised",
          "type": "uint256"
        },
        {
          "internalType": "uint256",
          "name": "targetAmount",
          "type": "uint256"
        },
        {
          "internalType": "uint256",
          "name": "startBlock",
          "type": "uint256"
        },
        {
          "internalType": "uint256",
          "name": "endBlock",
          "type": "uint256"
        }
      ],
      "stateMutability": "view",
      "type": "function"
    },
    {
      "inputs": [],
      "name": "disperseFunds",
      "outputs": [],
      "stateMutability": "nonpayable",
      "type": "function"
    },
    {
      "inputs": [
        {
          "internalType": "address",
          "name": "_to",
          "type": "address"
        },
        {
          "internalType": "uint256",
          "name": "_amount",
          "type": "uint256"
        }
      ],
      "name": "donateAsDonor",
      "outputs": [],
      "stateMutability": "nonpayable",
      "type": "function"
    },
    {
      "inputs": [],
      "name": "donor",
      "outputs": [
        {
          "internalType": "contract Donor",
          "name": "",
          "type": "address"
        }
      ],
      "stateMutability": "view",
      "type": "function"
    },
    {
      "inputs": [
        {
          "internalType": "address",
          "name": "",
          "type": "address"
        }
      ],
      "name": "fundStarted",
      "outputs": [
        {
          "internalType": "bool",
          "name": "",
          "type": "bool"
        }
      ],
      "stateMutability": "view",
      "type": "function"
    },
    {
      "inputs": [
        {
          "internalType": "uint256",
          "name": "_id",
          "type": "uint256"
        }
      ],
      "name": "getById",
      "outputs": [
        {
          "internalType": "address",
          "name": "",
          "type": "address"
        }
      ],
      "stateMutability": "view",
      "type": "function"
    },
    {
      "inputs": [],
      "name": "id",
      "outputs": [
        {
          "internalType": "uint256",
          "name": "",
          "type": "uint256"
        }
      ],
      "stateMutability": "view",
      "type": "function"
    },
    {
      "inputs": [],
      "name": "onGoingFunds",
      "outputs": [
        {
          "internalType": "uint256",
          "name": "",
          "type": "uint256"
        }
      ],
      "stateMutability": "view",
      "type": "function"
    },
    {
      "inputs": [],
      "name": "owner",
      "outputs": [
        {
          "internalType": "address",
          "name": "",
          "type": "address"
        }
      ],
      "stateMutability": "view",
      "type": "function"
    },
    {
      "inputs": [
        {
          "internalType": "uint256",
          "name": "",
          "type": "uint256"
        }
      ],
      "name": "owners",
      "outputs": [
        {
          "internalType": "address",
          "name": "",
          "type": "address"
        }
      ],
      "stateMutability": "view",
      "type": "function"
    },
    {
      "inputs": [],
      "name": "renounceOwnership",
      "outputs": [],
      "stateMutability": "nonpayable",
      "type": "function"
    },
    {
      "inputs": [
        {
          "internalType": "uint256",
          "name": "_divisor",
          "type": "uint256"
        }
      ],
      "name": "setFeePercent",
      "outputs": [],
      "stateMutability": "nonpayable",
      "type": "function"
    },
    {
      "inputs": [
        {
          "internalType": "uint256",
          "name": "_amountToRaise",
          "type": "uint256"
        },
        {
          "internalType": "uint256",
          "name": "_daysToRaise",
          "type": "uint256"
        }
      ],
      "name": "startFundMe",
      "outputs": [],
      "stateMutability": "nonpayable",
      "type": "function"
    },
    {
      "inputs": [
        {
          "internalType": "address",
          "name": "newOwner",
          "type": "address"
        }
      ],
      "name": "transferOwnership",
      "outputs": [],
      "stateMutability": "nonpayable",
      "type": "function"
    },
    {
      "stateMutability": "payable",
      "type": "receive"
    }
  ],
  "bytecode": "0x608060405260016002553480156200001657600080fd5b5060405162001aa838038062001aa883398181016040528101906200003c91906200018f565b6200005c62000050620000ac60201b60201c565b620000b460201b60201c565b80600160006101000a81548173ffffffffffffffffffffffffffffffffffffffff021916908373ffffffffffffffffffffffffffffffffffffffff160217905550600a6004819055505062000209565b600033905090565b60008060009054906101000a900473ffffffffffffffffffffffffffffffffffffffff169050816000806101000a81548173ffffffffffffffffffffffffffffffffffffffff021916908373ffffffffffffffffffffffffffffffffffffffff1602179055508173ffffffffffffffffffffffffffffffffffffffff168173ffffffffffffffffffffffffffffffffffffffff167f8be0079c531659141344cd1fd0a4f28419497f9722a3daafe3b4186f6b6457e060405160405180910390a35050565b6000815190506200018981620001ef565b92915050565b600060208284031215620001a257600080fd5b6000620001b28482850162000178565b91505092915050565b6000620001c882620001cf565b9050919050565b600073ffffffffffffffffffffffffffffffffffffffff82169050919050565b620001fa81620001bb565b81146200020657600080fd5b50565b61188f80620002196000396000f3fe6080604052600436106100e15760003560e01c80638da5cb5b1161007f578063ddd398cc11610059578063ddd398cc14610293578063e230fb64146102d4578063f2fde38b146102fd578063f4f4d23714610326576100e8565b80638da5cb5b14610214578063918704a41461023f578063af640d0f14610268576100e8565b8063715018a6116100bb578063715018a61461016c578063775be745146101835780637ce3489b146101ae5780637d114fd0146101d7576100e8565b8063025e7c27146100ed57806325223bd41461012a5780635130ac1f14610155576100e8565b366100e857005b600080fd5b3480156100f957600080fd5b50610114600480360381019061010f91906110d7565b610363565b604051610121919061126d565b60405180910390f35b34801561013657600080fd5b5061013f610396565b60405161014c9190611303565b60405180910390f35b34801561016157600080fd5b5061016a6103bc565b005b34801561017857600080fd5b506101816107ef565b005b34801561018f57600080fd5b50610198610877565b6040516101a591906113fe565b60405180910390f35b3480156101ba57600080fd5b506101d560048036038101906101d091906110d7565b61087d565b005b3480156101e357600080fd5b506101fe60048036038101906101f99190611049565b610903565b60405161020b91906112e8565b60405180910390f35b34801561022057600080fd5b50610229610923565b604051610236919061126d565b60405180910390f35b34801561024b57600080fd5b5061026660048036038101906102619190611100565b61094c565b005b34801561027457600080fd5b5061027d610c3a565b60405161028a91906113fe565b60405180910390f35b34801561029f57600080fd5b506102ba60048036038101906102b59190611049565b610c40565b6040516102cb959493929190611419565b60405180910390f35b3480156102e057600080fd5b506102fb60048036038101906102f69190611072565b610c76565b005b34801561030957600080fd5b50610324600480360381019061031f9190611049565b610e09565b005b34801561033257600080fd5b5061034d600480360381019061034891906110d7565b610f01565b60405161035a919061126d565b60405180910390f35b60076020528060005260406000206000915054906101000a900473ffffffffffffffffffffffffffffffffffffffff1681565b600160009054906101000a900473ffffffffffffffffffffffffffffffffffffffff1681565b60011515600860003373ffffffffffffffffffffffffffffffffffffffff1673ffffffffffffffffffffffffffffffffffffffff16815260200190815260200160002060009054906101000a900460ff1615151461044f576040517f08c379a0000000000000000000000000000000000000000000000000000000008152600401610446906113be565b60405180910390fd5b600660003373ffffffffffffffffffffffffffffffffffffffff1673ffffffffffffffffffffffffffffffffffffffff168152602001908152602001600020600401544211806105235750600660003373ffffffffffffffffffffffffffffffffffffffff1673ffffffffffffffffffffffffffffffffffffffff16815260200190815260200160002060010154600660003373ffffffffffffffffffffffffffffffffffffffff1673ffffffffffffffffffffffffffffffffffffffff1681526020019081526020016000206002015410155b610562576040517f08c379a0000000000000000000000000000000000000000000000000000000008152600401610559906113de565b60405180910390fd5b6000600660003373ffffffffffffffffffffffffffffffffffffffff1673ffffffffffffffffffffffffffffffffffffffff1681526020019081526020016000206001015490506000600454826105b991906114d3565b9050600081836105c9919061155e565b90506000600660003373ffffffffffffffffffffffffffffffffffffffff1673ffffffffffffffffffffffffffffffffffffffff168152602001908152602001600020600101819055506000600860003373ffffffffffffffffffffffffffffffffffffffff1673ffffffffffffffffffffffffffffffffffffffff16815260200190815260200160002060006101000a81548160ff021916908315150217905550600160009054906101000a900473ffffffffffffffffffffffffffffffffffffffff1673ffffffffffffffffffffffffffffffffffffffff1663a9059cbb6106b1610923565b846040518363ffffffff1660e01b81526004016106cf9291906112bf565b602060405180830381600087803b1580156106e957600080fd5b505af11580156106fd573d6000803e3d6000fd5b505050506040513d601f19601f8201168201806040525081019061072191906110ae565b50600160009054906101000a900473ffffffffffffffffffffffffffffffffffffffff1673ffffffffffffffffffffffffffffffffffffffff1663a9059cbb33836040518363ffffffff1660e01b815260040161077f9291906112bf565b602060405180830381600087803b15801561079957600080fd5b505af11580156107ad573d6000803e3d6000fd5b505050506040513d601f19601f820116820180604052508101906107d191906110ae565b50600560008154809291906107e5906115fe565b9190505550505050565b6107f7610f3e565b73ffffffffffffffffffffffffffffffffffffffff16610815610923565b73ffffffffffffffffffffffffffffffffffffffff161461086b576040517f08c379a00000000000000000000000000000000000000000000000000000000081526004016108629061139e565b60405180910390fd5b6108756000610f46565b565b60055481565b610885610f3e565b73ffffffffffffffffffffffffffffffffffffffff166108a3610923565b73ffffffffffffffffffffffffffffffffffffffff16146108f9576040517f08c379a00000000000000000000000000000000000000000000000000000000081526004016108f09061139e565b60405180910390fd5b8060048190555050565b60086020528060005260406000206000915054906101000a900460ff1681565b60008060009054906101000a900473ffffffffffffffffffffffffffffffffffffffff16905090565b60001515600860003373ffffffffffffffffffffffffffffffffffffffff1673ffffffffffffffffffffffffffffffffffffffff16815260200190815260200160002060009054906101000a900460ff161515146109df576040517f08c379a00000000000000000000000000000000000000000000000000000000081526004016109d69061135e565b60405180910390fd5b6001811015610a23576040517f08c379a0000000000000000000000000000000000000000000000000000000008152600401610a1a9061131e565b60405180910390fd5b600254600660003373ffffffffffffffffffffffffffffffffffffffff1673ffffffffffffffffffffffffffffffffffffffff168152602001908152602001600020600001819055503360076000600254815260200190815260200160002060006101000a81548173ffffffffffffffffffffffffffffffffffffffff021916908373ffffffffffffffffffffffffffffffffffffffff16021790555081600660003373ffffffffffffffffffffffffffffffffffffffff1673ffffffffffffffffffffffffffffffffffffffff1681526020019081526020016000206002018190555042600660003373ffffffffffffffffffffffffffffffffffffffff1673ffffffffffffffffffffffffffffffffffffffff168152602001908152602001600020600301819055508062015180610b5d9190611504565b42610b68919061147d565b600660003373ffffffffffffffffffffffffffffffffffffffff1673ffffffffffffffffffffffffffffffffffffffff168152602001908152602001600020600401819055506001600860003373ffffffffffffffffffffffffffffffffffffffff1673ffffffffffffffffffffffffffffffffffffffff16815260200190815260200160002060006101000a81548160ff02191690831515021790555060026000815480929190610c1990611628565b919050555060056000815480929190610c3190611628565b91905055505050565b60025481565b60066020528060005260406000206000915090508060000154908060010154908060020154908060030154908060040154905085565b600660008373ffffffffffffffffffffffffffffffffffffffff1673ffffffffffffffffffffffffffffffffffffffff168152602001908152602001600020600401544210610cfa576040517f08c379a0000000000000000000000000000000000000000000000000000000008152600401610cf19061137e565b60405180910390fd5b600160009054906101000a900473ffffffffffffffffffffffffffffffffffffffff1673ffffffffffffffffffffffffffffffffffffffff166323b872dd3330846040518463ffffffff1660e01b8152600401610d5993929190611288565b602060405180830381600087803b158015610d7357600080fd5b505af1158015610d87573d6000803e3d6000fd5b505050506040513d601f19601f82011682018060405250810190610dab91906110ae565b5080600660008473ffffffffffffffffffffffffffffffffffffffff1673ffffffffffffffffffffffffffffffffffffffff1681526020019081526020016000206001016000828254610dfe919061147d565b925050819055505050565b610e11610f3e565b73ffffffffffffffffffffffffffffffffffffffff16610e2f610923565b73ffffffffffffffffffffffffffffffffffffffff1614610e85576040517f08c379a0000000000000000000000000000000000000000000000000000000008152600401610e7c9061139e565b60405180910390fd5b600073ffffffffffffffffffffffffffffffffffffffff168173ffffffffffffffffffffffffffffffffffffffff161415610ef5576040517f08c379a0000000000000000000000000000000000000000000000000000000008152600401610eec9061133e565b60405180910390fd5b610efe81610f46565b50565b60006007600083815260200190815260200160002060009054906101000a900473ffffffffffffffffffffffffffffffffffffffff169050919050565b600033905090565b60008060009054906101000a900473ffffffffffffffffffffffffffffffffffffffff169050816000806101000a81548173ffffffffffffffffffffffffffffffffffffffff021916908373ffffffffffffffffffffffffffffffffffffffff1602179055508173ffffffffffffffffffffffffffffffffffffffff168173ffffffffffffffffffffffffffffffffffffffff167f8be0079c531659141344cd1fd0a4f28419497f9722a3daafe3b4186f6b6457e060405160405180910390a35050565b60008135905061101981611814565b92915050565b60008151905061102e8161182b565b92915050565b60008135905061104381611842565b92915050565b60006020828403121561105b57600080fd5b60006110698482850161100a565b91505092915050565b6000806040838503121561108557600080fd5b60006110938582860161100a565b92505060206110a485828601611034565b9150509250929050565b6000602082840312156110c057600080fd5b60006110ce8482850161101f565b91505092915050565b6000602082840312156110e957600080fd5b60006110f784828501611034565b91505092915050565b6000806040838503121561111357600080fd5b600061112185828601611034565b925050602061113285828601611034565b9150509250929050565b61114581611592565b82525050565b611154816115a4565b82525050565b611163816115da565b82525050565b600061117660108361146c565b9150611181826116cf565b602082019050919050565b600061119960268361146c565b91506111a4826116f8565b604082019050919050565b60006111bc60128361146c565b91506111c782611747565b602082019050919050565b60006111df600d8361146c565b91506111ea82611770565b602082019050919050565b600061120260208361146c565b915061120d82611799565b602082019050919050565b600061122560168361146c565b9150611230826117c2565b602082019050919050565b6000611248600e8361146c565b9150611253826117eb565b602082019050919050565b611267816115d0565b82525050565b6000602082019050611282600083018461113c565b92915050565b600060608201905061129d600083018661113c565b6112aa602083018561113c565b6112b7604083018461125e565b949350505050565b60006040820190506112d4600083018561113c565b6112e1602083018461125e565b9392505050565b60006020820190506112fd600083018461114b565b92915050565b6000602082019050611318600083018461115a565b92915050565b6000602082019050818103600083015261133781611169565b9050919050565b600060208201905081810360008301526113578161118c565b9050919050565b60006020820190508181036000830152611377816111af565b9050919050565b60006020820190508181036000830152611397816111d2565b9050919050565b600060208201905081810360008301526113b7816111f5565b9050919050565b600060208201905081810360008301526113d781611218565b9050919050565b600060208201905081810360008301526113f78161123b565b9050919050565b6000602082019050611413600083018461125e565b92915050565b600060a08201905061142e600083018861125e565b61143b602083018761125e565b611448604083018661125e565b611455606083018561125e565b611462608083018461125e565b9695505050505050565b600082825260208201905092915050565b6000611488826115d0565b9150611493836115d0565b9250827fffffffffffffffffffffffffffffffffffffffffffffffffffffffffffffffff038211156114c8576114c7611671565b5b828201905092915050565b60006114de826115d0565b91506114e9836115d0565b9250826114f9576114f86116a0565b5b828204905092915050565b600061150f826115d0565b915061151a836115d0565b9250817fffffffffffffffffffffffffffffffffffffffffffffffffffffffffffffffff048311821515161561155357611552611671565b5b828202905092915050565b6000611569826115d0565b9150611574836115d0565b92508282101561158757611586611671565b5b828203905092915050565b600061159d826115b0565b9050919050565b60008115159050919050565b600073ffffffffffffffffffffffffffffffffffffffff82169050919050565b6000819050919050565b60006115e5826115ec565b9050919050565b60006115f7826115b0565b9050919050565b6000611609826115d0565b9150600082141561161d5761161c611671565b5b600182039050919050565b6000611633826115d0565b91507fffffffffffffffffffffffffffffffffffffffffffffffffffffffffffffffff82141561166657611665611671565b5b600182019050919050565b7f4e487b7100000000000000000000000000000000000000000000000000000000600052601160045260246000fd5b7f4e487b7100000000000000000000000000000000000000000000000000000000600052601260045260246000fd5b7f4e6f7420656e6f7567682074696d652e00000000000000000000000000000000600082015250565b7f4f776e61626c653a206e6577206f776e657220697320746865207a65726f206160008201527f6464726573730000000000000000000000000000000000000000000000000000602082015250565b7f596f752061726520696e20612066756e642e0000000000000000000000000000600082015250565b7f46756e64206973206f7665722e00000000000000000000000000000000000000600082015250565b7f4f776e61626c653a2063616c6c6572206973206e6f7420746865206f776e6572600082015250565b7f596f7520617265206e6f7420696e20612066756e642e00000000000000000000600082015250565b7f5374696c6c206f6e676f696e672e000000000000000000000000000000000000600082015250565b61181d81611592565b811461182857600080fd5b50565b611834816115a4565b811461183f57600080fd5b50565b61184b816115d0565b811461185657600080fd5b5056fea2646970667358221220289ad3d027e58b591c89c9e994adc8558e28f9ad8789a340b96b67364063b23964736f6c63430008040033",
  "linkReferences": {},
  "deployedLinkReferences": {}
}